{
  "contractName": "ProjectG",
  "abi": [
    {
      "inputs": [],
      "stateMutability": "nonpayable",
      "type": "constructor"
    },
    {
      "inputs": [],
      "name": "AccessControlBadConfirmation",
      "type": "error"
    },
    {
      "inputs": [
        {
          "internalType": "address",
          "name": "account",
          "type": "address"
        },
        {
          "internalType": "bytes32",
          "name": "neededRole",
          "type": "bytes32"
        }
      ],
      "name": "AccessControlUnauthorizedAccount",
      "type": "error"
    },
    {
      "inputs": [
        {
          "internalType": "address",
          "name": "sender",
          "type": "address"
        },
        {
          "internalType": "uint256",
          "name": "tokenId",
          "type": "uint256"
        },
        {
          "internalType": "address",
          "name": "owner",
          "type": "address"
        }
      ],
      "name": "ERC721IncorrectOwner",
      "type": "error"
    },
    {
      "inputs": [
        {
          "internalType": "address",
          "name": "operator",
          "type": "address"
        },
        {
          "internalType": "uint256",
          "name": "tokenId",
          "type": "uint256"
        }
      ],
      "name": "ERC721InsufficientApproval",
      "type": "error"
    },
    {
      "inputs": [
        {
          "internalType": "address",
          "name": "approver",
          "type": "address"
        }
      ],
      "name": "ERC721InvalidApprover",
      "type": "error"
    },
    {
      "inputs": [
        {
          "internalType": "address",
          "name": "operator",
          "type": "address"
        }
      ],
      "name": "ERC721InvalidOperator",
      "type": "error"
    },
    {
      "inputs": [
        {
          "internalType": "address",
          "name": "owner",
          "type": "address"
        }
      ],
      "name": "ERC721InvalidOwner",
      "type": "error"
    },
    {
      "inputs": [
        {
          "internalType": "address",
          "name": "receiver",
          "type": "address"
        }
      ],
      "name": "ERC721InvalidReceiver",
      "type": "error"
    },
    {
      "inputs": [
        {
          "internalType": "address",
          "name": "sender",
          "type": "address"
        }
      ],
      "name": "ERC721InvalidSender",
      "type": "error"
    },
    {
      "inputs": [
        {
          "internalType": "uint256",
          "name": "tokenId",
          "type": "uint256"
        }
      ],
      "name": "ERC721NonexistentToken",
      "type": "error"
    },
    {
      "anonymous": false,
      "inputs": [
        {
          "indexed": false,
          "internalType": "bytes32",
          "name": "role",
          "type": "bytes32"
        },
        {
          "indexed": false,
          "internalType": "address",
          "name": "account",
          "type": "address"
        }
      ],
      "name": "AddUser",
      "type": "event"
    },
    {
      "anonymous": false,
      "inputs": [
        {
          "indexed": true,
          "internalType": "address",
          "name": "owner",
          "type": "address"
        },
        {
          "indexed": true,
          "internalType": "address",
          "name": "approved",
          "type": "address"
        },
        {
          "indexed": true,
          "internalType": "uint256",
          "name": "tokenId",
          "type": "uint256"
        }
      ],
      "name": "Approval",
      "type": "event"
    },
    {
      "anonymous": false,
      "inputs": [
        {
          "indexed": true,
          "internalType": "address",
          "name": "owner",
          "type": "address"
        },
        {
          "indexed": true,
          "internalType": "address",
          "name": "operator",
          "type": "address"
        },
        {
          "indexed": false,
          "internalType": "bool",
          "name": "approved",
          "type": "bool"
        }
      ],
      "name": "ApprovalForAll",
      "type": "event"
    },
    {
      "anonymous": false,
      "inputs": [
        {
          "indexed": false,
          "internalType": "string",
          "name": "orderId",
          "type": "string"
        },
        {
          "indexed": false,
          "internalType": "uint256",
          "name": "amount",
          "type": "uint256"
        },
        {
          "indexed": true,
          "internalType": "address",
          "name": "customer",
          "type": "address"
        }
      ],
      "name": "OrderCancelled",
      "type": "event"
    },
    {
      "anonymous": false,
      "inputs": [
        {
          "indexed": true,
          "internalType": "address",
          "name": "to",
          "type": "address"
        },
        {
          "indexed": false,
          "internalType": "uint256",
          "name": "amount",
          "type": "uint256"
        },
        {
          "indexed": false,
          "internalType": "string",
          "name": "orderId",
          "type": "string"
        }
      ],
      "name": "OrderCreated",
      "type": "event"
    },
    {
      "anonymous": false,
      "inputs": [
        {
          "indexed": false,
          "internalType": "string",
          "name": "orderId",
          "type": "string"
        },
        {
          "indexed": false,
          "internalType": "string",
          "name": "statusMessage",
          "type": "string"
        }
      ],
      "name": "OrderStatusMessage",
      "type": "event"
    },
    {
      "anonymous": false,
      "inputs": [
        {
          "indexed": false,
          "internalType": "string",
          "name": "orderId",
          "type": "string"
        },
        {
          "indexed": false,
          "internalType": "string",
          "name": "status",
          "type": "string"
        }
      ],
      "name": "OrderUpdated",
      "type": "event"
    },
    {
      "anonymous": false,
      "inputs": [
        {
          "indexed": true,
          "internalType": "bytes32",
          "name": "role",
          "type": "bytes32"
        },
        {
          "indexed": true,
          "internalType": "bytes32",
          "name": "previousAdminRole",
          "type": "bytes32"
        },
        {
          "indexed": true,
          "internalType": "bytes32",
          "name": "newAdminRole",
          "type": "bytes32"
        }
      ],
      "name": "RoleAdminChanged",
      "type": "event"
    },
    {
      "anonymous": false,
      "inputs": [
        {
          "indexed": true,
          "internalType": "bytes32",
          "name": "role",
          "type": "bytes32"
        },
        {
          "indexed": true,
          "internalType": "address",
          "name": "account",
          "type": "address"
        },
        {
          "indexed": true,
          "internalType": "address",
          "name": "sender",
          "type": "address"
        }
      ],
      "name": "RoleGranted",
      "type": "event"
    },
    {
      "anonymous": false,
      "inputs": [
        {
          "indexed": true,
          "internalType": "bytes32",
          "name": "role",
          "type": "bytes32"
        },
        {
          "indexed": true,
          "internalType": "address",
          "name": "account",
          "type": "address"
        },
        {
          "indexed": true,
          "internalType": "address",
          "name": "sender",
          "type": "address"
        }
      ],
      "name": "RoleRevoked",
      "type": "event"
    },
    {
      "anonymous": false,
      "inputs": [
        {
          "indexed": true,
          "internalType": "address",
          "name": "from",
          "type": "address"
        },
        {
          "indexed": true,
          "internalType": "address",
          "name": "to",
          "type": "address"
        },
        {
          "indexed": true,
          "internalType": "uint256",
          "name": "tokenId",
          "type": "uint256"
        }
      ],
      "name": "Transfer",
      "type": "event"
    },
    {
      "inputs": [],
      "name": "CUSTOMER",
      "outputs": [
        {
          "internalType": "bytes32",
          "name": "",
          "type": "bytes32"
        }
      ],
      "stateMutability": "view",
      "type": "function",
      "constant": true
    },
    {
      "inputs": [],
      "name": "DEFAULT_ADMIN_ROLE",
      "outputs": [
        {
          "internalType": "bytes32",
          "name": "",
          "type": "bytes32"
        }
      ],
      "stateMutability": "view",
      "type": "function",
      "constant": true
    },
    {
      "inputs": [],
      "name": "ORDER_ACCEPTED",
      "outputs": [
        {
          "internalType": "string",
          "name": "",
          "type": "string"
        }
      ],
      "stateMutability": "view",
      "type": "function",
      "constant": true
    },
    {
      "inputs": [],
      "name": "ORDER_CANCELLED",
      "outputs": [
        {
          "internalType": "string",
          "name": "",
          "type": "string"
        }
      ],
      "stateMutability": "view",
      "type": "function",
      "constant": true
    },
    {
      "inputs": [],
      "name": "ORDER_CREATED",
      "outputs": [
        {
          "internalType": "string",
          "name": "",
          "type": "string"
        }
      ],
      "stateMutability": "view",
      "type": "function",
      "constant": true
    },
    {
      "inputs": [],
      "name": "ORDER_DELIVERED",
      "outputs": [
        {
          "internalType": "string",
          "name": "",
          "type": "string"
        }
      ],
      "stateMutability": "view",
      "type": "function",
      "constant": true
    },
    {
      "inputs": [],
      "name": "ORDER_REJECTED",
      "outputs": [
        {
          "internalType": "string",
          "name": "",
          "type": "string"
        }
      ],
      "stateMutability": "view",
      "type": "function",
      "constant": true
    },
    {
      "inputs": [],
      "name": "ORDER_SHIPPED",
      "outputs": [
        {
          "internalType": "string",
          "name": "",
          "type": "string"
        }
      ],
      "stateMutability": "view",
      "type": "function",
      "constant": true
    },
    {
      "inputs": [],
      "name": "SHIPMENT_PROVIDER",
      "outputs": [
        {
          "internalType": "bytes32",
          "name": "",
          "type": "bytes32"
        }
      ],
      "stateMutability": "view",
      "type": "function",
      "constant": true
    },
    {
      "inputs": [],
      "name": "SUPPLIER",
      "outputs": [
        {
          "internalType": "bytes32",
          "name": "",
          "type": "bytes32"
        }
      ],
      "stateMutability": "view",
      "type": "function",
      "constant": true
    },
    {
      "inputs": [
        {
          "internalType": "address",
          "name": "to",
          "type": "address"
        },
        {
          "internalType": "uint256",
          "name": "tokenId",
          "type": "uint256"
        }
      ],
      "name": "approve",
      "outputs": [],
      "stateMutability": "nonpayable",
      "type": "function"
    },
    {
      "inputs": [
        {
          "internalType": "address",
          "name": "owner",
          "type": "address"
        }
      ],
      "name": "balanceOf",
      "outputs": [
        {
          "internalType": "uint256",
          "name": "",
          "type": "uint256"
        }
      ],
      "stateMutability": "view",
      "type": "function",
      "constant": true
    },
    {
      "inputs": [
        {
          "internalType": "uint256",
          "name": "tokenId",
          "type": "uint256"
        }
      ],
      "name": "burn",
      "outputs": [],
      "stateMutability": "nonpayable",
      "type": "function"
    },
    {
      "inputs": [
        {
          "internalType": "uint256",
          "name": "tokenId",
          "type": "uint256"
        }
      ],
      "name": "getApproved",
      "outputs": [
        {
          "internalType": "address",
          "name": "",
          "type": "address"
        }
      ],
      "stateMutability": "view",
      "type": "function",
      "constant": true
    },
    {
      "inputs": [
        {
          "internalType": "bytes32",
          "name": "role",
          "type": "bytes32"
        }
      ],
      "name": "getRoleAdmin",
      "outputs": [
        {
          "internalType": "bytes32",
          "name": "",
          "type": "bytes32"
        }
      ],
      "stateMutability": "view",
      "type": "function",
      "constant": true
    },
    {
      "inputs": [
        {
          "internalType": "bytes32",
          "name": "role",
          "type": "bytes32"
        },
        {
          "internalType": "address",
          "name": "account",
          "type": "address"
        }
      ],
      "name": "grantRole",
      "outputs": [],
      "stateMutability": "nonpayable",
      "type": "function"
    },
    {
      "inputs": [
        {
          "internalType": "bytes32",
          "name": "role",
          "type": "bytes32"
        },
        {
          "internalType": "address",
          "name": "account",
          "type": "address"
        }
      ],
      "name": "hasRole",
      "outputs": [
        {
          "internalType": "bool",
          "name": "",
          "type": "bool"
        }
      ],
      "stateMutability": "view",
      "type": "function",
      "constant": true
    },
    {
      "inputs": [
        {
          "internalType": "address",
          "name": "owner",
          "type": "address"
        },
        {
          "internalType": "address",
          "name": "operator",
          "type": "address"
        }
      ],
      "name": "isApprovedForAll",
      "outputs": [
        {
          "internalType": "bool",
          "name": "",
          "type": "bool"
        }
      ],
      "stateMutability": "view",
      "type": "function",
      "constant": true
    },
    {
      "inputs": [],
      "name": "name",
      "outputs": [
        {
          "internalType": "string",
          "name": "",
          "type": "string"
        }
      ],
      "stateMutability": "view",
      "type": "function",
      "constant": true
    },
    {
      "inputs": [
        {
          "internalType": "uint256",
          "name": "tokenId",
          "type": "uint256"
        }
      ],
      "name": "ownerOf",
      "outputs": [
        {
          "internalType": "address",
          "name": "",
          "type": "address"
        }
      ],
      "stateMutability": "view",
      "type": "function",
      "constant": true
    },
    {
      "inputs": [
        {
          "internalType": "bytes32",
          "name": "role",
          "type": "bytes32"
        },
        {
          "internalType": "address",
          "name": "callerConfirmation",
          "type": "address"
        }
      ],
      "name": "renounceRole",
      "outputs": [],
      "stateMutability": "nonpayable",
      "type": "function"
    },
    {
      "inputs": [
        {
          "internalType": "bytes32",
          "name": "role",
          "type": "bytes32"
        },
        {
          "internalType": "address",
          "name": "account",
          "type": "address"
        }
      ],
      "name": "revokeRole",
      "outputs": [],
      "stateMutability": "nonpayable",
      "type": "function"
    },
    {
      "inputs": [
        {
          "internalType": "address",
          "name": "from",
          "type": "address"
        },
        {
          "internalType": "address",
          "name": "to",
          "type": "address"
        },
        {
          "internalType": "uint256",
          "name": "tokenId",
          "type": "uint256"
        }
      ],
      "name": "safeTransferFrom",
      "outputs": [],
      "stateMutability": "nonpayable",
      "type": "function"
    },
    {
      "inputs": [
        {
          "internalType": "address",
          "name": "from",
          "type": "address"
        },
        {
          "internalType": "address",
          "name": "to",
          "type": "address"
        },
        {
          "internalType": "uint256",
          "name": "tokenId",
          "type": "uint256"
        },
        {
          "internalType": "bytes",
          "name": "data",
          "type": "bytes"
        }
      ],
      "name": "safeTransferFrom",
      "outputs": [],
      "stateMutability": "nonpayable",
      "type": "function"
    },
    {
      "inputs": [
        {
          "internalType": "address",
          "name": "operator",
          "type": "address"
        },
        {
          "internalType": "bool",
          "name": "approved",
          "type": "bool"
        }
      ],
      "name": "setApprovalForAll",
      "outputs": [],
      "stateMutability": "nonpayable",
      "type": "function"
    },
    {
      "inputs": [],
      "name": "symbol",
      "outputs": [
        {
          "internalType": "string",
          "name": "",
          "type": "string"
        }
      ],
      "stateMutability": "view",
      "type": "function",
      "constant": true
    },
    {
      "inputs": [
        {
          "internalType": "uint256",
          "name": "tokenId",
          "type": "uint256"
        }
      ],
      "name": "tokenURI",
      "outputs": [
        {
          "internalType": "string",
          "name": "",
          "type": "string"
        }
      ],
      "stateMutability": "view",
      "type": "function",
      "constant": true
    },
    {
      "inputs": [
        {
          "internalType": "address",
          "name": "from",
          "type": "address"
        },
        {
          "internalType": "address",
          "name": "to",
          "type": "address"
        },
        {
          "internalType": "uint256",
          "name": "tokenId",
          "type": "uint256"
        }
      ],
      "name": "transferFrom",
      "outputs": [],
      "stateMutability": "nonpayable",
      "type": "function"
    },
    {
      "inputs": [
        {
          "internalType": "bytes32",
          "name": "role",
          "type": "bytes32"
        },
        {
          "internalType": "address",
          "name": "account",
          "type": "address"
        }
      ],
      "name": "addUser",
      "outputs": [],
      "stateMutability": "nonpayable",
      "type": "function"
    },
    {
      "inputs": [
        {
          "internalType": "address",
          "name": "to",
          "type": "address"
        },
        {
          "internalType": "uint256",
          "name": "amount",
          "type": "uint256"
        },
        {
          "internalType": "string",
          "name": "orderId",
          "type": "string"
        }
      ],
      "name": "createOrder",
      "outputs": [],
      "stateMutability": "payable",
      "type": "function",
      "payable": true
    },
    {
      "inputs": [
        {
          "internalType": "string",
          "name": "orderId",
          "type": "string"
        }
      ],
      "name": "cancelOrder",
      "outputs": [],
      "stateMutability": "nonpayable",
      "type": "function"
    },
    {
      "inputs": [
        {
          "internalType": "string",
          "name": "orderId",
          "type": "string"
        }
      ],
      "name": "rejectOrder",
      "outputs": [],
      "stateMutability": "nonpayable",
      "type": "function"
    },
    {
      "inputs": [
        {
          "internalType": "string",
          "name": "orderId",
          "type": "string"
        },
        {
          "internalType": "string",
          "name": "status",
          "type": "string"
        }
      ],
      "name": "updateOrderStatus",
      "outputs": [],
      "stateMutability": "nonpayable",
      "type": "function"
    },
    {
      "inputs": [
        {
          "internalType": "string",
          "name": "orderId",
          "type": "string"
        },
        {
          "internalType": "string",
          "name": "statusMessage",
          "type": "string"
        }
      ],
      "name": "updateOrderStatusMessage",
      "outputs": [],
      "stateMutability": "nonpayable",
      "type": "function"
    },
    {
      "inputs": [
        {
          "internalType": "bytes4",
          "name": "interfaceId",
          "type": "bytes4"
        }
      ],
      "name": "supportsInterface",
      "outputs": [
        {
          "internalType": "bool",
          "name": "",
          "type": "bool"
        }
      ],
      "stateMutability": "view",
      "type": "function",
      "constant": true
    }
  ],
  "bytecode": "0x608060405234801562000010575f80fd5b506040518060400160405280600881526020017f50726f6a656374470000000000000000000000000000000000000000000000008152506040518060400160405280600181526020017f4700000000000000000000000000000000000000000000000000000000000000815250815f90816200008d919062000488565b5080600190816200009f919062000488565b505050620000b65f801b33620000bd60201b60201c565b506200056c565b5f620000d08383620001b960201b60201c565b620001af57600160065f8581526020019081526020015f205f015f8473ffffffffffffffffffffffffffffffffffffffff1673ffffffffffffffffffffffffffffffffffffffff1681526020019081526020015f205f6101000a81548160ff0219169083151502179055506200014b6200021d60201b60201c565b73ffffffffffffffffffffffffffffffffffffffff168273ffffffffffffffffffffffffffffffffffffffff16847f2f8788117e7eff1d82e926ec794901d17c78024a50270940304540a733656f0d60405160405180910390a460019050620001b3565b5f90505b92915050565b5f60065f8481526020019081526020015f205f015f8373ffffffffffffffffffffffffffffffffffffffff1673ffffffffffffffffffffffffffffffffffffffff1681526020019081526020015f205f9054906101000a900460ff16905092915050565b5f33905090565b5f81519050919050565b7f4e487b71000000000000000000000000000000000000000000000000000000005f52604160045260245ffd5b7f4e487b71000000000000000000000000000000000000000000000000000000005f52602260045260245ffd5b5f6002820490506001821680620002a057607f821691505b602082108103620002b657620002b56200025b565b5b50919050565b5f819050815f5260205f209050919050565b5f6020601f8301049050919050565b5f82821b905092915050565b5f600883026200031a7fffffffffffffffffffffffffffffffffffffffffffffffffffffffffffffffff82620002dd565b620003268683620002dd565b95508019841693508086168417925050509392505050565b5f819050919050565b5f819050919050565b5f620003706200036a62000364846200033e565b62000347565b6200033e565b9050919050565b5f819050919050565b6200038b8362000350565b620003a36200039a8262000377565b848454620002e9565b825550505050565b5f90565b620003b9620003ab565b620003c681848462000380565b505050565b5b81811015620003ed57620003e15f82620003af565b600181019050620003cc565b5050565b601f8211156200043c576200040681620002bc565b6200041184620002ce565b8101602085101562000421578190505b620004396200043085620002ce565b830182620003cb565b50505b505050565b5f82821c905092915050565b5f6200045e5f198460080262000441565b1980831691505092915050565b5f6200047883836200044d565b9150826002028217905092915050565b620004938262000224565b67ffffffffffffffff811115620004af57620004ae6200022e565b5b620004bb825462000288565b620004c8828285620003f1565b5f60209050601f831160018114620004fe575f8415620004e9578287015190505b620004f585826200046b565b86555062000564565b601f1984166200050e86620002bc565b5f5b82811015620005375784890151825560018201915060208501945060208101905062000510565b8683101562000557578489015162000553601f8916826200044d565b8355505b6001600288020188555050505b505050505050565b6138ab806200057a5f395ff3fe608060405260043610610203575f3560e01c80637234b50211610117578063c2558ffd1161009f578063e985e9c51161006e578063e985e9c51461074b578063ed1b763c14610787578063edfa77d0146107b1578063f928d387146107d9578063fd2072921461080157610203565b8063c2558ffd14610695578063c87b56dd146106bd578063d547741f146106f9578063e926eb961461072157610203565b8063a217fddf116100e6578063a217fddf146105cb578063a22cb465146105f5578063a5de0fc11461061d578063aa9c542614610645578063b88d4fde1461066d57610203565b80637234b5021461051157806391d148541461053b57806395d89b41146105775780639617fccd146105a157610203565b806323b872dd1161019a57806336568abe1161016957806336568abe1461042157806342842e0e1461044957806342966c68146104715780636352211e1461049957806370a08231146104d557610203565b806323b872dd1461036b578063248a9ca3146103935780632f2ff15d146103cf5780633324a111146103f757610203565b8063081812fc116101d6578063081812fc146102c1578063095ea7b3146102fd57806314c9856a1461032557806317fd74711461034f57610203565b806301c976411461020757806301ffc9a714610231578063050a4c081461026d57806306fdde0314610297575b5f80fd5b348015610212575f80fd5b5061021b61082b565b6040516102289190612c40565b60405180910390f35b34801561023c575f80fd5b5061025760048036038101906102529190612cc6565b610864565b6040516102649190612d0b565b60405180910390f35b348015610278575f80fd5b50610281610875565b60405161028e9190612c40565b60405180910390f35b3480156102a2575f80fd5b506102ab6108ae565b6040516102b89190612c40565b60405180910390f35b3480156102cc575f80fd5b506102e760048036038101906102e29190612d57565b61093d565b6040516102f49190612dc1565b60405180910390f35b348015610308575f80fd5b50610323600480360381019061031e9190612e04565b610958565b005b348015610330575f80fd5b5061033961096e565b6040516103469190612c40565b60405180910390f35b61036960048036038101906103649190612f6e565b6109a7565b005b348015610376575f80fd5b50610391600480360381019061038c9190612fda565b610bc5565b005b34801561039e575f80fd5b506103b960048036038101906103b4919061305d565b610cc4565b6040516103c69190613097565b60405180910390f35b3480156103da575f80fd5b506103f560048036038101906103f091906130b0565b610ce1565b005b348015610402575f80fd5b5061040b610d03565b6040516104189190612c40565b60405180910390f35b34801561042c575f80fd5b50610447600480360381019061044291906130b0565b610d3c565b005b348015610454575f80fd5b5061046f600480360381019061046a9190612fda565b610db7565b005b34801561047c575f80fd5b5061049760048036038101906104929190612d57565b610dd6565b005b3480156104a4575f80fd5b506104bf60048036038101906104ba9190612d57565b610dec565b6040516104cc9190612dc1565b60405180910390f35b3480156104e0575f80fd5b506104fb60048036038101906104f691906130ee565b610dfd565b6040516105089190613128565b60405180910390f35b34801561051c575f80fd5b50610525610eb3565b6040516105329190613097565b60405180910390f35b348015610546575f80fd5b50610561600480360381019061055c91906130b0565b610ed7565b60405161056e9190612d0b565b60405180910390f35b348015610582575f80fd5b5061058b610f3b565b6040516105989190612c40565b60405180910390f35b3480156105ac575f80fd5b506105b5610fcb565b6040516105c29190613097565b60405180910390f35b3480156105d6575f80fd5b506105df610fef565b6040516105ec9190613097565b60405180910390f35b348015610600575f80fd5b5061061b6004803603810190610616919061316b565b610ff5565b005b348015610628575f80fd5b50610643600480360381019061063e91906131a9565b61100b565b005b348015610650575f80fd5b5061066b600480360381019061066691906130b0565b6111e4565b005b348015610678575f80fd5b50610693600480360381019061068e919061328e565b611239565b005b3480156106a0575f80fd5b506106bb60048036038101906106b691906131a9565b611256565b005b3480156106c8575f80fd5b506106e360048036038101906106de9190612d57565b61142d565b6040516106f09190612c40565b60405180910390f35b348015610704575f80fd5b5061071f600480360381019061071a91906130b0565b611493565b005b34801561072c575f80fd5b506107356114b5565b6040516107429190613097565b60405180910390f35b348015610756575f80fd5b50610771600480360381019061076c919061330e565b6114d9565b60405161077e9190612d0b565b60405180910390f35b348015610792575f80fd5b5061079b611567565b6040516107a89190612c40565b60405180910390f35b3480156107bc575f80fd5b506107d760048036038101906107d2919061334c565b6115a0565b005b3480156107e4575f80fd5b506107ff60048036038101906107fa919061334c565b611917565b005b34801561080c575f80fd5b50610815611a2a565b6040516108229190612c40565b60405180910390f35b6040518060400160405280600e81526020017f4f524445525f414343455054454400000000000000000000000000000000000081525081565b5f61086e82611a63565b9050919050565b6040518060400160405280600f81526020017f4f524445525f44454c495645524544000000000000000000000000000000000081525081565b60605f80546108bc906133ef565b80601f01602080910402602001604051908101604052809291908181526020018280546108e8906133ef565b80156109335780601f1061090a57610100808354040283529160200191610933565b820191905f5260205f20905b81548152906001019060200180831161091657829003601f168201915b5050505050905090565b5f61094782611adc565b5061095182611b62565b9050919050565b61096a8282610965611b9b565b611ba2565b5050565b6040518060400160405280600e81526020017f4f524445525f52454a454354454400000000000000000000000000000000000081525081565b7f46e0d1fa2be0423550e96859e7c25c6f3178358b189469f16373069e7f092a0a6109d181611bb4565b5f73ffffffffffffffffffffffffffffffffffffffff166007836040516109f89190613459565b90815260200160405180910390205f9054906101000a900473ffffffffffffffffffffffffffffffffffffffff1673ffffffffffffffffffffffffffffffffffffffff1614610a7c576040517f08c379a0000000000000000000000000000000000000000000000000000000008152600401610a73906134b9565b60405180910390fd5b823414610abe576040517f08c379a0000000000000000000000000000000000000000000000000000000008152600401610ab590613521565b60405180910390fd5b83600783604051610acf9190613459565b90815260200160405180910390205f6101000a81548173ffffffffffffffffffffffffffffffffffffffff021916908373ffffffffffffffffffffffffffffffffffffffff160217905550610b4c8483604051602001610b2f9190613459565b604051602081830303815290604052805190602001205f1c611bc8565b82600883604051610b5d9190613459565b9081526020016040518091039020819055508373ffffffffffffffffffffffffffffffffffffffff167f86dc3e629d58c02341c75944647618a0d2b7220468152dcd8bf295f2cec5040f8484604051610bb792919061353f565b60405180910390a250505050565b5f73ffffffffffffffffffffffffffffffffffffffff168273ffffffffffffffffffffffffffffffffffffffff1603610c35575f6040517f64a0ae92000000000000000000000000000000000000000000000000000000008152600401610c2c9190612dc1565b60405180910390fd5b5f610c488383610c43611b9b565b611be5565b90508373ffffffffffffffffffffffffffffffffffffffff168173ffffffffffffffffffffffffffffffffffffffff1614610cbe578382826040517f64283d7b000000000000000000000000000000000000000000000000000000008152600401610cb59392919061356d565b60405180910390fd5b50505050565b5f60065f8381526020019081526020015f20600101549050919050565b610cea82610cc4565b610cf381611bb4565b610cfd8383611df0565b50505050565b6040518060400160405280600d81526020017f4f524445525f435245415445440000000000000000000000000000000000000081525081565b610d44611b9b565b73ffffffffffffffffffffffffffffffffffffffff168173ffffffffffffffffffffffffffffffffffffffff1614610da8576040517f6697b23200000000000000000000000000000000000000000000000000000000815260040160405180910390fd5b610db28282611eda565b505050565b610dd183838360405180602001604052805f815250611239565b505050565b610de85f82610de3611b9b565b611be5565b5050565b5f610df682611adc565b9050919050565b5f8073ffffffffffffffffffffffffffffffffffffffff168273ffffffffffffffffffffffffffffffffffffffff1603610e6e575f6040517f89c62b64000000000000000000000000000000000000000000000000000000008152600401610e659190612dc1565b60405180910390fd5b60035f8373ffffffffffffffffffffffffffffffffffffffff1673ffffffffffffffffffffffffffffffffffffffff1681526020019081526020015f20549050919050565b7f46e0d1fa2be0423550e96859e7c25c6f3178358b189469f16373069e7f092a0a81565b5f60065f8481526020019081526020015f205f015f8373ffffffffffffffffffffffffffffffffffffffff1673ffffffffffffffffffffffffffffffffffffffff1681526020019081526020015f205f9054906101000a900460ff16905092915050565b606060018054610f4a906133ef565b80601f0160208091040260200160405190810160405280929190818152602001828054610f76906133ef565b8015610fc15780601f10610f9857610100808354040283529160200191610fc1565b820191905f5260205f20905b815481529060010190602001808311610fa457829003601f168201915b5050505050905090565b7f5b62d29d03c4a019ab839d28ad56c56c0df7fd096a25758a02d8a58f23ac0ecf81565b5f801b81565b611007611000611b9b565b8383611fc4565b5050565b7ff4649f2a97b4905837fc846dcfefa3e2561c3a9744fc53688b4d0bcb33e49f9861103581611bb4565b5f73ffffffffffffffffffffffffffffffffffffffff1660078360405161105c9190613459565b90815260200160405180910390205f9054906101000a900473ffffffffffffffffffffffffffffffffffffffff1673ffffffffffffffffffffffffffffffffffffffff16036110e0576040517f08c379a00000000000000000000000000000000000000000000000000000000081526004016110d7906135ec565b60405180910390fd5b611111826040516020016110f49190613459565b604051602081830303815290604052805190602001205f1c61212d565b6007826040516111219190613459565b90815260200160405180910390205f6101000a81549073ffffffffffffffffffffffffffffffffffffffff02191690556008826040516111619190613459565b90815260200160405180910390205f90553373ffffffffffffffffffffffffffffffffffffffff167f1d7264fb0f972e0340a45b6b6d6d61980f5a04cc13dc6721c1bd6e3bbda4e152836008856040516111bb9190613459565b9081526020016040518091039020546040516111d892919061360a565b60405180910390a25050565b5f801b6111f081611bb4565b6111fa8383611df0565b507f397ab6bd733d702497502935e21f4de2fbbaa5c0737193190f1054df3f04ab01838360405161122c929190613638565b60405180910390a1505050565b611244848484610bc5565b611250848484846121af565b50505050565b7f46e0d1fa2be0423550e96859e7c25c6f3178358b189469f16373069e7f092a0a61128081611bb4565b5f73ffffffffffffffffffffffffffffffffffffffff166007836040516112a79190613459565b90815260200160405180910390205f9054906101000a900473ffffffffffffffffffffffffffffffffffffffff1673ffffffffffffffffffffffffffffffffffffffff160361132b576040517f08c379a0000000000000000000000000000000000000000000000000000000008152600401611322906135ec565b60405180910390fd5b5f60088360405161133c9190613459565b90815260200160405180910390205490505f339050611382846040516020016113659190613459565b604051602081830303815290604052805190602001205f1c61212d565b6007846040516113929190613459565b90815260200160405180910390205f6101000a81549073ffffffffffffffffffffffffffffffffffffffff02191690556008846040516113d29190613459565b90815260200160405180910390205f90558073ffffffffffffffffffffffffffffffffffffffff166108fc8390811502906040515f60405180830381858888f19350505050158015611426573d5f803e3d5ffd5b5050505050565b606061143882611adc565b505f611442612361565b90505f8151116114605760405180602001604052805f81525061148b565b8061146a84612377565b60405160200161147b92919061365f565b6040516020818303038152906040525b915050919050565b61149c82610cc4565b6114a581611bb4565b6114af8383611eda565b50505050565b7ff4649f2a97b4905837fc846dcfefa3e2561c3a9744fc53688b4d0bcb33e49f9881565b5f60055f8473ffffffffffffffffffffffffffffffffffffffff1673ffffffffffffffffffffffffffffffffffffffff1681526020019081526020015f205f8373ffffffffffffffffffffffffffffffffffffffff1673ffffffffffffffffffffffffffffffffffffffff1681526020019081526020015f205f9054906101000a900460ff16905092915050565b6040518060400160405280600d81526020017f4f524445525f534849505045440000000000000000000000000000000000000081525081565b7ff4649f2a97b4905837fc846dcfefa3e2561c3a9744fc53688b4d0bcb33e49f986115ca81611bb4565b5f73ffffffffffffffffffffffffffffffffffffffff166007846040516115f19190613459565b90815260200160405180910390205f9054906101000a900473ffffffffffffffffffffffffffffffffffffffff1673ffffffffffffffffffffffffffffffffffffffff1603611675576040517f08c379a000000000000000000000000000000000000000000000000000000000815260040161166c906135ec565b60405180910390fd5b6040518060400160405280600e81526020017f4f524445525f41434345505445440000000000000000000000000000000000008152506040516020016116bb9190613459565b60405160208183030381529060405280519060200120826040516020016116e29190613459565b60405160208183030381529060405280519060200120148061178457506040518060400160405280600e81526020017f4f524445525f52454a45435445440000000000000000000000000000000000008152506040516020016117459190613459565b604051602081830303815290604052805190602001208260405160200161176c9190613459565b60405160208183030381529060405280519060200120145b8061180f57506040518060400160405280600d81526020017f4f524445525f53484950504544000000000000000000000000000000000000008152506040516020016117d09190613459565b60405160208183030381529060405280519060200120826040516020016117f79190613459565b60405160208183030381529060405280519060200120145b8061189a57506040518060400160405280600f81526020017f4f524445525f44454c495645524544000000000000000000000000000000000081525060405160200161185b9190613459565b60405160208183030381529060405280519060200120826040516020016118829190613459565b60405160208183030381529060405280519060200120145b6118d9576040517f08c379a00000000000000000000000000000000000000000000000000000000081526004016118d0906136cc565b60405180910390fd5b7fcfb849f69f0cd0044c68f9965bb294a75e738b3d5540faec1679b2bf8c0336b0838360405161190a9291906136ea565b60405180910390a1505050565b7f5b62d29d03c4a019ab839d28ad56c56c0df7fd096a25758a02d8a58f23ac0ecf61194181611bb4565b5f73ffffffffffffffffffffffffffffffffffffffff166007846040516119689190613459565b90815260200160405180910390205f9054906101000a900473ffffffffffffffffffffffffffffffffffffffff1673ffffffffffffffffffffffffffffffffffffffff16036119ec576040517f08c379a00000000000000000000000000000000000000000000000000000000081526004016119e3906135ec565b60405180910390fd5b7fc16df7c87be9373cbb46e110b9790cb9fe8373efe4bc4f94dd906b38ed8152a38383604051611a1d9291906136ea565b60405180910390a1505050565b6040518060400160405280600f81526020017f4f524445525f43414e43454c4c4544000000000000000000000000000000000081525081565b5f7f7965db0b000000000000000000000000000000000000000000000000000000007bffffffffffffffffffffffffffffffffffffffffffffffffffffffff1916827bffffffffffffffffffffffffffffffffffffffffffffffffffffffff19161480611ad55750611ad482612441565b5b9050919050565b5f80611ae783612522565b90505f73ffffffffffffffffffffffffffffffffffffffff168173ffffffffffffffffffffffffffffffffffffffff1603611b5957826040517f7e273289000000000000000000000000000000000000000000000000000000008152600401611b509190613128565b60405180910390fd5b80915050919050565b5f60045f8381526020019081526020015f205f9054906101000a900473ffffffffffffffffffffffffffffffffffffffff169050919050565b5f33905090565b611baf838383600161255b565b505050565b611bc581611bc0611b9b565b61271a565b50565b611be1828260405180602001604052805f81525061276b565b5050565b5f80611bf084612522565b90505f73ffffffffffffffffffffffffffffffffffffffff168373ffffffffffffffffffffffffffffffffffffffff1614611c3157611c30818486612786565b5b5f73ffffffffffffffffffffffffffffffffffffffff168173ffffffffffffffffffffffffffffffffffffffff1614611cbc57611c705f855f8061255b565b600160035f8373ffffffffffffffffffffffffffffffffffffffff1673ffffffffffffffffffffffffffffffffffffffff1681526020019081526020015f205f82825403925050819055505b5f73ffffffffffffffffffffffffffffffffffffffff168573ffffffffffffffffffffffffffffffffffffffff1614611d3b57600160035f8773ffffffffffffffffffffffffffffffffffffffff1673ffffffffffffffffffffffffffffffffffffffff1681526020019081526020015f205f82825401925050819055505b8460025f8681526020019081526020015f205f6101000a81548173ffffffffffffffffffffffffffffffffffffffff021916908373ffffffffffffffffffffffffffffffffffffffff160217905550838573ffffffffffffffffffffffffffffffffffffffff168273ffffffffffffffffffffffffffffffffffffffff167fddf252ad1be2c89b69c2b068fc378daa952ba7f163c4a11628f55a4df523b3ef60405160405180910390a4809150509392505050565b5f611dfb8383610ed7565b611ed057600160065f8581526020019081526020015f205f015f8473ffffffffffffffffffffffffffffffffffffffff1673ffffffffffffffffffffffffffffffffffffffff1681526020019081526020015f205f6101000a81548160ff021916908315150217905550611e6d611b9b565b73ffffffffffffffffffffffffffffffffffffffff168273ffffffffffffffffffffffffffffffffffffffff16847f2f8788117e7eff1d82e926ec794901d17c78024a50270940304540a733656f0d60405160405180910390a460019050611ed4565b5f90505b92915050565b5f611ee58383610ed7565b15611fba575f60065f8581526020019081526020015f205f015f8473ffffffffffffffffffffffffffffffffffffffff1673ffffffffffffffffffffffffffffffffffffffff1681526020019081526020015f205f6101000a81548160ff021916908315150217905550611f57611b9b565b73ffffffffffffffffffffffffffffffffffffffff168273ffffffffffffffffffffffffffffffffffffffff16847ff6391f5c32d9c69d2a47ea670b442974b53935d1edc7fd64eb21e047a839171b60405160405180910390a460019050611fbe565b5f90505b92915050565b5f73ffffffffffffffffffffffffffffffffffffffff168273ffffffffffffffffffffffffffffffffffffffff160361203457816040517f5b08ba1800000000000000000000000000000000000000000000000000000000815260040161202b9190612dc1565b60405180910390fd5b8060055f8573ffffffffffffffffffffffffffffffffffffffff1673ffffffffffffffffffffffffffffffffffffffff1681526020019081526020015f205f8473ffffffffffffffffffffffffffffffffffffffff1673ffffffffffffffffffffffffffffffffffffffff1681526020019081526020015f205f6101000a81548160ff0219169083151502179055508173ffffffffffffffffffffffffffffffffffffffff168373ffffffffffffffffffffffffffffffffffffffff167f17307eab39ab6107e8899845ad3d59bd9653f200f220920489ca2b5937696c31836040516121209190612d0b565b60405180910390a3505050565b5f6121395f835f611be5565b90505f73ffffffffffffffffffffffffffffffffffffffff168173ffffffffffffffffffffffffffffffffffffffff16036121ab57816040517f7e2732890000000000000000000000000000000000000000000000000000000081526004016121a29190613128565b60405180910390fd5b5050565b5f8373ffffffffffffffffffffffffffffffffffffffff163b111561235b578273ffffffffffffffffffffffffffffffffffffffff1663150b7a026121f2611b9b565b8685856040518563ffffffff1660e01b81526004016122149493929190613771565b6020604051808303815f875af192505050801561224f57506040513d601f19601f8201168201806040525081019061224c91906137cf565b60015b6122d0573d805f811461227d576040519150601f19603f3d011682016040523d82523d5f602084013e612282565b606091505b505f8151036122c857836040517f64a0ae920000000000000000000000000000000000000000000000000000000081526004016122bf9190612dc1565b60405180910390fd5b805181602001fd5b63150b7a0260e01b7bffffffffffffffffffffffffffffffffffffffffffffffffffffffff1916817bffffffffffffffffffffffffffffffffffffffffffffffffffffffff19161461235957836040517f64a0ae920000000000000000000000000000000000000000000000000000000081526004016123509190612dc1565b60405180910390fd5b505b50505050565b606060405180602001604052805f815250905090565b60605f600161238584612849565b0190505f8167ffffffffffffffff8111156123a3576123a2612e4a565b5b6040519080825280601f01601f1916602001820160405280156123d55781602001600182028036833780820191505090505b5090505f82602001820190505b600115612436578080600190039150507f3031323334353637383961626364656600000000000000000000000000000000600a86061a8153600a858161242b5761242a6137fa565b5b0494505f85036123e2575b819350505050919050565b5f7f80ac58cd000000000000000000000000000000000000000000000000000000007bffffffffffffffffffffffffffffffffffffffffffffffffffffffff1916827bffffffffffffffffffffffffffffffffffffffffffffffffffffffff1916148061250b57507f5b5e139f000000000000000000000000000000000000000000000000000000007bffffffffffffffffffffffffffffffffffffffffffffffffffffffff1916827bffffffffffffffffffffffffffffffffffffffffffffffffffffffff1916145b8061251b575061251a8261299a565b5b9050919050565b5f60025f8381526020019081526020015f205f9054906101000a900473ffffffffffffffffffffffffffffffffffffffff169050919050565b808061259357505f73ffffffffffffffffffffffffffffffffffffffff168273ffffffffffffffffffffffffffffffffffffffff1614155b156126c5575f6125a284611adc565b90505f73ffffffffffffffffffffffffffffffffffffffff168373ffffffffffffffffffffffffffffffffffffffff161415801561260c57508273ffffffffffffffffffffffffffffffffffffffff168173ffffffffffffffffffffffffffffffffffffffff1614155b801561261f575061261d81846114d9565b155b1561266157826040517fa9fbf51f0000000000000000000000000000000000000000000000000000000081526004016126589190612dc1565b60405180910390fd5b81156126c357838573ffffffffffffffffffffffffffffffffffffffff168273ffffffffffffffffffffffffffffffffffffffff167f8c5be1e5ebec7d5bd14f71427d1e84f3dd0314c0f7b2291e5b200ac8c7c3b92560405160405180910390a45b505b8360045f8581526020019081526020015f205f6101000a81548173ffffffffffffffffffffffffffffffffffffffff021916908373ffffffffffffffffffffffffffffffffffffffff16021790555050505050565b6127248282610ed7565b6127675780826040517fe2517d3f00000000000000000000000000000000000000000000000000000000815260040161275e929190613827565b60405180910390fd5b5050565b6127758383612a03565b6127815f8484846121af565b505050565b612791838383612af6565b612844575f73ffffffffffffffffffffffffffffffffffffffff168373ffffffffffffffffffffffffffffffffffffffff160361280557806040517f7e2732890000000000000000000000000000000000000000000000000000000081526004016127fc9190613128565b60405180910390fd5b81816040517f177e802f00000000000000000000000000000000000000000000000000000000815260040161283b92919061384e565b60405180910390fd5b505050565b5f805f90507a184f03e93ff9f4daa797ed6e38ed64bf6a1f01000000000000000083106128a5577a184f03e93ff9f4daa797ed6e38ed64bf6a1f010000000000000000838161289b5761289a6137fa565b5b0492506040810190505b6d04ee2d6d415b85acef810000000083106128e2576d04ee2d6d415b85acef810000000083816128d8576128d76137fa565b5b0492506020810190505b662386f26fc10000831061291157662386f26fc100008381612907576129066137fa565b5b0492506010810190505b6305f5e100831061293a576305f5e10083816129305761292f6137fa565b5b0492506008810190505b612710831061295f576127108381612955576129546137fa565b5b0492506004810190505b606483106129825760648381612978576129776137fa565b5b0492506002810190505b600a8310612991576001810190505b80915050919050565b5f7f01ffc9a7000000000000000000000000000000000000000000000000000000007bffffffffffffffffffffffffffffffffffffffffffffffffffffffff1916827bffffffffffffffffffffffffffffffffffffffffffffffffffffffff1916149050919050565b5f73ffffffffffffffffffffffffffffffffffffffff168273ffffffffffffffffffffffffffffffffffffffff1603612a73575f6040517f64a0ae92000000000000000000000000000000000000000000000000000000008152600401612a6a9190612dc1565b60405180910390fd5b5f612a7f83835f611be5565b90505f73ffffffffffffffffffffffffffffffffffffffff168173ffffffffffffffffffffffffffffffffffffffff1614612af1575f6040517f73c6ac6e000000000000000000000000000000000000000000000000000000008152600401612ae89190612dc1565b60405180910390fd5b505050565b5f8073ffffffffffffffffffffffffffffffffffffffff168373ffffffffffffffffffffffffffffffffffffffff1614158015612bad57508273ffffffffffffffffffffffffffffffffffffffff168473ffffffffffffffffffffffffffffffffffffffff161480612b6e5750612b6d84846114d9565b5b80612bac57508273ffffffffffffffffffffffffffffffffffffffff16612b9483611b62565b73ffffffffffffffffffffffffffffffffffffffff16145b5b90509392505050565b5f81519050919050565b5f82825260208201905092915050565b5f5b83811015612bed578082015181840152602081019050612bd2565b5f8484015250505050565b5f601f19601f8301169050919050565b5f612c1282612bb6565b612c1c8185612bc0565b9350612c2c818560208601612bd0565b612c3581612bf8565b840191505092915050565b5f6020820190508181035f830152612c588184612c08565b905092915050565b5f604051905090565b5f80fd5b5f80fd5b5f7fffffffff0000000000000000000000000000000000000000000000000000000082169050919050565b612ca581612c71565b8114612caf575f80fd5b50565b5f81359050612cc081612c9c565b92915050565b5f60208284031215612cdb57612cda612c69565b5b5f612ce884828501612cb2565b91505092915050565b5f8115159050919050565b612d0581612cf1565b82525050565b5f602082019050612d1e5f830184612cfc565b92915050565b5f819050919050565b612d3681612d24565b8114612d40575f80fd5b50565b5f81359050612d5181612d2d565b92915050565b5f60208284031215612d6c57612d6b612c69565b5b5f612d7984828501612d43565b91505092915050565b5f73ffffffffffffffffffffffffffffffffffffffff82169050919050565b5f612dab82612d82565b9050919050565b612dbb81612da1565b82525050565b5f602082019050612dd45f830184612db2565b92915050565b612de381612da1565b8114612ded575f80fd5b50565b5f81359050612dfe81612dda565b92915050565b5f8060408385031215612e1a57612e19612c69565b5b5f612e2785828601612df0565b9250506020612e3885828601612d43565b9150509250929050565b5f80fd5b5f80fd5b7f4e487b71000000000000000000000000000000000000000000000000000000005f52604160045260245ffd5b612e8082612bf8565b810181811067ffffffffffffffff82111715612e9f57612e9e612e4a565b5b80604052505050565b5f612eb1612c60565b9050612ebd8282612e77565b919050565b5f67ffffffffffffffff821115612edc57612edb612e4a565b5b612ee582612bf8565b9050602081019050919050565b828183375f83830152505050565b5f612f12612f0d84612ec2565b612ea8565b905082815260208101848484011115612f2e57612f2d612e46565b5b612f39848285612ef2565b509392505050565b5f82601f830112612f5557612f54612e42565b5b8135612f65848260208601612f00565b91505092915050565b5f805f60608486031215612f8557612f84612c69565b5b5f612f9286828701612df0565b9350506020612fa386828701612d43565b925050604084013567ffffffffffffffff811115612fc457612fc3612c6d565b5b612fd086828701612f41565b9150509250925092565b5f805f60608486031215612ff157612ff0612c69565b5b5f612ffe86828701612df0565b935050602061300f86828701612df0565b925050604061302086828701612d43565b9150509250925092565b5f819050919050565b61303c8161302a565b8114613046575f80fd5b50565b5f8135905061305781613033565b92915050565b5f6020828403121561307257613071612c69565b5b5f61307f84828501613049565b91505092915050565b6130918161302a565b82525050565b5f6020820190506130aa5f830184613088565b92915050565b5f80604083850312156130c6576130c5612c69565b5b5f6130d385828601613049565b92505060206130e485828601612df0565b9150509250929050565b5f6020828403121561310357613102612c69565b5b5f61311084828501612df0565b91505092915050565b61312281612d24565b82525050565b5f60208201905061313b5f830184613119565b92915050565b61314a81612cf1565b8114613154575f80fd5b50565b5f8135905061316581613141565b92915050565b5f806040838503121561318157613180612c69565b5b5f61318e85828601612df0565b925050602061319f85828601613157565b9150509250929050565b5f602082840312156131be576131bd612c69565b5b5f82013567ffffffffffffffff8111156131db576131da612c6d565b5b6131e784828501612f41565b91505092915050565b5f67ffffffffffffffff82111561320a57613209612e4a565b5b61321382612bf8565b9050602081019050919050565b5f61323261322d846131f0565b612ea8565b90508281526020810184848401111561324e5761324d612e46565b5b613259848285612ef2565b509392505050565b5f82601f83011261327557613274612e42565b5b8135613285848260208601613220565b91505092915050565b5f805f80608085870312156132a6576132a5612c69565b5b5f6132b387828801612df0565b94505060206132c487828801612df0565b93505060406132d587828801612d43565b925050606085013567ffffffffffffffff8111156132f6576132f5612c6d565b5b61330287828801613261565b91505092959194509250565b5f806040838503121561332457613323612c69565b5b5f61333185828601612df0565b925050602061334285828601612df0565b9150509250929050565b5f806040838503121561336257613361612c69565b5b5f83013567ffffffffffffffff81111561337f5761337e612c6d565b5b61338b85828601612f41565b925050602083013567ffffffffffffffff8111156133ac576133ab612c6d565b5b6133b885828601612f41565b9150509250929050565b7f4e487b71000000000000000000000000000000000000000000000000000000005f52602260045260245ffd5b5f600282049050600182168061340657607f821691505b602082108103613419576134186133c2565b5b50919050565b5f81905092915050565b5f61343382612bb6565b61343d818561341f565b935061344d818560208601612bd0565b80840191505092915050565b5f6134648284613429565b915081905092915050565b7f50726f6a656374473a206f7264657220616c72656164792065786973747300005f82015250565b5f6134a3601e83612bc0565b91506134ae8261346f565b602082019050919050565b5f6020820190508181035f8301526134d081613497565b9050919050565b7f50726f6a656374473a20696e636f727265637420616d6f756e740000000000005f82015250565b5f61350b601a83612bc0565b9150613516826134d7565b602082019050919050565b5f6020820190508181035f830152613538816134ff565b9050919050565b5f6040820190506135525f830185613119565b81810360208301526135648184612c08565b90509392505050565b5f6060820190506135805f830186612db2565b61358d6020830185613119565b61359a6040830184612db2565b949350505050565b7f50726f6a656374473a206f7264657220646f6573206e6f7420657869737400005f82015250565b5f6135d6601e83612bc0565b91506135e1826135a2565b602082019050919050565b5f6020820190508181035f830152613603816135ca565b9050919050565b5f6040820190508181035f8301526136228185612c08565b90506136316020830184613119565b9392505050565b5f60408201905061364b5f830185613088565b6136586020830184612db2565b9392505050565b5f61366a8285613429565b91506136768284613429565b91508190509392505050565b7f50726f6a656374473a20696e76616c69642073746174757300000000000000005f82015250565b5f6136b6601883612bc0565b91506136c182613682565b602082019050919050565b5f6020820190508181035f8301526136e3816136aa565b9050919050565b5f6040820190508181035f8301526137028185612c08565b905081810360208301526137168184612c08565b90509392505050565b5f81519050919050565b5f82825260208201905092915050565b5f6137438261371f565b61374d8185613729565b935061375d818560208601612bd0565b61376681612bf8565b840191505092915050565b5f6080820190506137845f830187612db2565b6137916020830186612db2565b61379e6040830185613119565b81810360608301526137b08184613739565b905095945050505050565b5f815190506137c981612c9c565b92915050565b5f602082840312156137e4576137e3612c69565b5b5f6137f1848285016137bb565b91505092915050565b7f4e487b71000000000000000000000000000000000000000000000000000000005f52601260045260245ffd5b5f60408201905061383a5f830185612db2565b6138476020830184613088565b9392505050565b5f6040820190506138615f830185612db2565b61386e6020830184613119565b939250505056fea2646970667358221220043f0cf1fd71dbd4d2faecd3054556b0d8dc1b13580718a2f939b9e8045d7d1764736f6c63430008150033",
  "immutableReferences": {},
  "source": "// SPDX-License-Identifier: MIT\n// Compatible with OpenZeppelin Contracts ^5.0.0\npragma solidity ^0.8.20;\n\nimport \"@openzeppelin/contracts/token/ERC721/ERC721.sol\";\nimport \"@openzeppelin/contracts/token/ERC721/extensions/ERC721Burnable.sol\";\nimport \"@openzeppelin/contracts/access/AccessControl.sol\";\n\ncontract ProjectG is ERC721, ERC721Burnable, AccessControl {\n    // Roles\n    bytes32 public constant CUSTOMER = keccak256(\"CUSTOMER\");\n    bytes32 public constant SUPPLIER = keccak256(\"SUPPLIER\");\n    bytes32 public constant SHIPMENT_PROVIDER = keccak256(\"SHIPMENT_PROVIDER\");\n\n    // Order Status\n    string public constant ORDER_CREATED = \"ORDER_CREATED\";\n    string public constant ORDER_ACCEPTED = \"ORDER_ACCEPTED\";\n    string public constant ORDER_SHIPPED = \"ORDER_SHIPPED\";\n    string public constant ORDER_CANCELLED = \"ORDER_CANCELLED\";\n    string public constant ORDER_REJECTED = \"ORDER_REJECTED\";\n    string public constant ORDER_DELIVERED = \"ORDER_DELIVERED\";\n\n\n    mapping(string => address) private orders;\n    mapping(string => uint256) private orderAmounts;\n\n    event AddUser(bytes32 role, address account);\n\n    event OrderCreated(address indexed to, uint256 amount, string orderId);\n    event OrderCancelled(\n        string orderId,\n        uint256 amount,\n        address indexed customer\n    );\n    event OrderUpdated(string orderId, string status);\n    event OrderStatusMessage(string orderId, string statusMessage);\n\n    constructor() ERC721(\"ProjectG\", \"G\") {\n        _grantRole(DEFAULT_ADMIN_ROLE, msg.sender);\n    }\n\n    function addUser(\n        bytes32 role,\n        address account\n    ) public onlyRole(DEFAULT_ADMIN_ROLE) {\n        _grantRole(role, account);\n        emit AddUser(role, account);\n    }\n\n    function createOrder(\n        address to,\n        uint256 amount,\n        string memory orderId\n    ) public payable onlyRole(CUSTOMER) {\n        require(\n            orders[orderId] == address(0),\n            \"ProjectG: order already exists\"\n        );\n        require(msg.value == amount, \"ProjectG: incorrect amount\");\n        orders[orderId] = to;\n        _safeMint(to, uint256(keccak256(abi.encodePacked(orderId))));\n        orderAmounts[orderId] = amount;\n        emit OrderCreated(to, amount, orderId);\n    }\n\n    function cancelOrder(string memory orderId) public onlyRole(CUSTOMER) {\n        require(\n            orders[orderId] != address(0),\n            \"ProjectG: order does not exist\"\n        );\n        uint256 amount = orderAmounts[orderId];\n        address payable customer = payable(msg.sender);\n        _burn(uint256(keccak256(abi.encodePacked(orderId))));\n        delete orders[orderId];\n        delete orderAmounts[orderId];\n        customer.transfer(amount);\n    }\n\n    function rejectOrder(string memory orderId) public onlyRole(SUPPLIER) {\n        require(\n            orders[orderId] != address(0),\n            \"ProjectG: order does not exist\"\n        );\n        _burn(uint256(keccak256(abi.encodePacked(orderId))));\n        delete orders[orderId];\n        delete orderAmounts[orderId];\n        emit OrderCancelled(orderId, orderAmounts[orderId], msg.sender);\n    }\n\n    function updateOrderStatus(string memory orderId, string memory status) public onlyRole(SUPPLIER) {\n        require(\n            orders[orderId] != address(0),\n            \"ProjectG: order does not exist\"\n        );\n        require(\n            keccak256(abi.encodePacked(status)) == keccak256(abi.encodePacked(ORDER_ACCEPTED)) ||\n            keccak256(abi.encodePacked(status)) == keccak256(abi.encodePacked(ORDER_REJECTED)) ||\n            keccak256(abi.encodePacked(status)) == keccak256(abi.encodePacked(ORDER_SHIPPED)) ||\n            keccak256(abi.encodePacked(status)) == keccak256(abi.encodePacked(ORDER_DELIVERED)),\n            \"ProjectG: invalid status\"\n        );\n        emit OrderUpdated(orderId, status);\n    }\n\n    function updateOrderStatusMessage(string memory orderId, string memory statusMessage) public onlyRole(SHIPMENT_PROVIDER) {\n        require(\n            orders[orderId] != address(0),\n            \"ProjectG: order does not exist\"\n        );\n        emit OrderStatusMessage(orderId, statusMessage);\n    }\n\n    // The following functions are overrides required by Solidity.\n\n    function supportsInterface(\n        bytes4 interfaceId\n    ) public view override(ERC721, AccessControl) returns (bool) {\n        return super.supportsInterface(interfaceId);\n    }\n}\n",
  "sourcePath": "/Users/pranavms/Documents/project-g/contracts/ProjectG.sol",
  "compiler": {
    "name": "solc",
    "version": "0.8.21+commit.d9974bed.Emscripten.clang"
  },
  "schemaVersion": "3.4.16",
  "updatedAt": "2024-09-21T09:55:12.991Z",
  "networkType": "ethereum",
  "devdoc": {
    "errors": {
      "AccessControlBadConfirmation()": [
        {
          "details": "The caller of a function is not the expected one. NOTE: Don't confuse with {AccessControlUnauthorizedAccount}."
        }
      ],
      "AccessControlUnauthorizedAccount(address,bytes32)": [
        {
          "details": "The `account` is missing a role."
        }
      ],
      "ERC721IncorrectOwner(address,uint256,address)": [
        {
          "details": "Indicates an error related to the ownership over a particular token. Used in transfers.",
          "params": {
            "owner": "Address of the current owner of a token.",
            "sender": "Address whose tokens are being transferred.",
            "tokenId": "Identifier number of a token."
          }
        }
      ],
      "ERC721InsufficientApproval(address,uint256)": [
        {
          "details": "Indicates a failure with the `operator`s approval. Used in transfers.",
          "params": {
            "operator": "Address that may be allowed to operate on tokens without being their owner.",
            "tokenId": "Identifier number of a token."
          }
        }
      ],
      "ERC721InvalidApprover(address)": [
        {
          "details": "Indicates a failure with the `approver` of a token to be approved. Used in approvals.",
          "params": {
            "approver": "Address initiating an approval operation."
          }
        }
      ],
      "ERC721InvalidOperator(address)": [
        {
          "details": "Indicates a failure with the `operator` to be approved. Used in approvals.",
          "params": {
            "operator": "Address that may be allowed to operate on tokens without being their owner."
          }
        }
      ],
      "ERC721InvalidOwner(address)": [
        {
          "details": "Indicates that an address can't be an owner. For example, `address(0)` is a forbidden owner in EIP-20. Used in balance queries.",
          "params": {
            "owner": "Address of the current owner of a token."
          }
        }
      ],
      "ERC721InvalidReceiver(address)": [
        {
          "details": "Indicates a failure with the token `receiver`. Used in transfers.",
          "params": {
            "receiver": "Address to which tokens are being transferred."
          }
        }
      ],
      "ERC721InvalidSender(address)": [
        {
          "details": "Indicates a failure with the token `sender`. Used in transfers.",
          "params": {
            "sender": "Address whose tokens are being transferred."
          }
        }
      ],
      "ERC721NonexistentToken(uint256)": [
        {
          "details": "Indicates a `tokenId` whose `owner` is the zero address.",
          "params": {
            "tokenId": "Identifier number of a token."
          }
        }
      ]
    },
    "events": {
      "Approval(address,address,uint256)": {
        "details": "Emitted when `owner` enables `approved` to manage the `tokenId` token."
      },
      "ApprovalForAll(address,address,bool)": {
        "details": "Emitted when `owner` enables or disables (`approved`) `operator` to manage all of its assets."
      },
      "RoleAdminChanged(bytes32,bytes32,bytes32)": {
        "details": "Emitted when `newAdminRole` is set as ``role``'s admin role, replacing `previousAdminRole` `DEFAULT_ADMIN_ROLE` is the starting admin for all roles, despite {RoleAdminChanged} not being emitted signaling this."
      },
      "RoleGranted(bytes32,address,address)": {
        "details": "Emitted when `account` is granted `role`. `sender` is the account that originated the contract call, an admin role bearer except when using {AccessControl-_setupRole}."
      },
      "RoleRevoked(bytes32,address,address)": {
        "details": "Emitted when `account` is revoked `role`. `sender` is the account that originated the contract call:   - if using `revokeRole`, it is the admin role bearer   - if using `renounceRole`, it is the role bearer (i.e. `account`)"
      },
      "Transfer(address,address,uint256)": {
        "details": "Emitted when `tokenId` token is transferred from `from` to `to`."
      }
    },
    "kind": "dev",
    "methods": {
      "approve(address,uint256)": {
        "details": "See {IERC721-approve}."
      },
      "balanceOf(address)": {
        "details": "See {IERC721-balanceOf}."
      },
      "burn(uint256)": {
        "details": "Burns `tokenId`. See {ERC721-_burn}. Requirements: - The caller must own `tokenId` or be an approved operator."
      },
      "getApproved(uint256)": {
        "details": "See {IERC721-getApproved}."
      },
      "getRoleAdmin(bytes32)": {
        "details": "Returns the admin role that controls `role`. See {grantRole} and {revokeRole}. To change a role's admin, use {_setRoleAdmin}."
      },
      "grantRole(bytes32,address)": {
        "details": "Grants `role` to `account`. If `account` had not been already granted `role`, emits a {RoleGranted} event. Requirements: - the caller must have ``role``'s admin role. May emit a {RoleGranted} event."
      },
      "hasRole(bytes32,address)": {
        "details": "Returns `true` if `account` has been granted `role`."
      },
      "isApprovedForAll(address,address)": {
        "details": "See {IERC721-isApprovedForAll}."
      },
      "name()": {
        "details": "See {IERC721Metadata-name}."
      },
      "ownerOf(uint256)": {
        "details": "See {IERC721-ownerOf}."
      },
      "renounceRole(bytes32,address)": {
        "details": "Revokes `role` from the calling account. Roles are often managed via {grantRole} and {revokeRole}: this function's purpose is to provide a mechanism for accounts to lose their privileges if they are compromised (such as when a trusted device is misplaced). If the calling account had been revoked `role`, emits a {RoleRevoked} event. Requirements: - the caller must be `callerConfirmation`. May emit a {RoleRevoked} event."
      },
      "revokeRole(bytes32,address)": {
        "details": "Revokes `role` from `account`. If `account` had been granted `role`, emits a {RoleRevoked} event. Requirements: - the caller must have ``role``'s admin role. May emit a {RoleRevoked} event."
      },
      "safeTransferFrom(address,address,uint256)": {
        "details": "See {IERC721-safeTransferFrom}."
      },
      "safeTransferFrom(address,address,uint256,bytes)": {
        "details": "See {IERC721-safeTransferFrom}."
      },
      "setApprovalForAll(address,bool)": {
        "details": "See {IERC721-setApprovalForAll}."
      },
      "symbol()": {
        "details": "See {IERC721Metadata-symbol}."
      },
      "tokenURI(uint256)": {
        "details": "See {IERC721Metadata-tokenURI}."
      },
      "transferFrom(address,address,uint256)": {
        "details": "See {IERC721-transferFrom}."
      }
    },
    "version": 1
  },
  "userdoc": {
    "kind": "user",
    "methods": {},
    "version": 1
  }
}